{
  "_format": "hh-sol-artifact-1",
  "contractName": "MyNFT",
  "sourceName": "contracts/MyNFT.sol",
  "abi": [
    {
      "inputs": [
        {
          "internalType": "string",
          "name": "name",
          "type": "string"
        },
        {
          "internalType": "string",
          "name": "symbol",
          "type": "string"
        },
        {
          "internalType": "string",
          "name": "baseTokenURI",
          "type": "string"
        }
      ],
      "stateMutability": "nonpayable",
      "type": "constructor"
    },
    {
      "anonymous": false,
      "inputs": [
        {
          "indexed": true,
          "internalType": "address",
          "name": "owner",
          "type": "address"
        },
        {
          "indexed": true,
          "internalType": "address",
          "name": "approved",
          "type": "address"
        },
        {
          "indexed": true,
          "internalType": "uint256",
          "name": "tokenId",
          "type": "uint256"
        }
      ],
      "name": "Approval",
      "type": "event"
    },
    {
      "anonymous": false,
      "inputs": [
        {
          "indexed": true,
          "internalType": "address",
          "name": "owner",
          "type": "address"
        },
        {
          "indexed": true,
          "internalType": "address",
          "name": "operator",
          "type": "address"
        },
        {
          "indexed": false,
          "internalType": "bool",
          "name": "approved",
          "type": "bool"
        }
      ],
      "name": "ApprovalForAll",
      "type": "event"
    },
    {
      "anonymous": false,
      "inputs": [
        {
          "indexed": true,
          "internalType": "address",
          "name": "from",
          "type": "address"
        },
        {
          "indexed": true,
          "internalType": "address",
          "name": "to",
          "type": "address"
        },
        {
          "indexed": true,
          "internalType": "uint256",
          "name": "tokenId",
          "type": "uint256"
        }
      ],
      "name": "Transfer",
      "type": "event"
    },
    {
      "inputs": [
        {
          "internalType": "address",
          "name": "to",
          "type": "address"
        },
        {
          "internalType": "uint256",
          "name": "tokenId",
          "type": "uint256"
        }
      ],
      "name": "approve",
      "outputs": [],
      "stateMutability": "nonpayable",
      "type": "function"
    },
    {
      "inputs": [
        {
          "internalType": "address",
          "name": "owner",
          "type": "address"
        }
      ],
      "name": "balanceOf",
      "outputs": [
        {
          "internalType": "uint256",
          "name": "",
          "type": "uint256"
        }
      ],
      "stateMutability": "view",
      "type": "function"
    },
    {
      "inputs": [
        {
          "internalType": "uint256",
          "name": "tokenId",
          "type": "uint256"
        }
      ],
      "name": "getApproved",
      "outputs": [
        {
          "internalType": "address",
          "name": "",
          "type": "address"
        }
      ],
      "stateMutability": "view",
      "type": "function"
    },
    {
      "inputs": [
        {
          "internalType": "address",
          "name": "owner",
          "type": "address"
        },
        {
          "internalType": "address",
          "name": "operator",
          "type": "address"
        }
      ],
      "name": "isApprovedForAll",
      "outputs": [
        {
          "internalType": "bool",
          "name": "",
          "type": "bool"
        }
      ],
      "stateMutability": "view",
      "type": "function"
    },
    {
      "inputs": [],
      "name": "maxSupply",
      "outputs": [
        {
          "internalType": "uint256",
          "name": "",
          "type": "uint256"
        }
      ],
      "stateMutability": "view",
      "type": "function"
    },
    {
      "inputs": [
        {
          "internalType": "string",
          "name": "imageURI",
          "type": "string"
        }
      ],
      "name": "mintWithURI",
      "outputs": [],
      "stateMutability": "nonpayable",
      "type": "function"
    },
    {
      "inputs": [],
      "name": "name",
      "outputs": [
        {
          "internalType": "string",
          "name": "",
          "type": "string"
        }
      ],
      "stateMutability": "view",
      "type": "function"
    },
    {
      "inputs": [
        {
          "internalType": "uint256",
          "name": "tokenId",
          "type": "uint256"
        }
      ],
      "name": "ownerOf",
      "outputs": [
        {
          "internalType": "address",
          "name": "",
          "type": "address"
        }
      ],
      "stateMutability": "view",
      "type": "function"
    },
    {
      "inputs": [
        {
          "internalType": "address",
          "name": "from",
          "type": "address"
        },
        {
          "internalType": "address",
          "name": "to",
          "type": "address"
        },
        {
          "internalType": "uint256",
          "name": "tokenId",
          "type": "uint256"
        }
      ],
      "name": "safeTransferFrom",
      "outputs": [],
      "stateMutability": "nonpayable",
      "type": "function"
    },
    {
      "inputs": [
        {
          "internalType": "address",
          "name": "from",
          "type": "address"
        },
        {
          "internalType": "address",
          "name": "to",
          "type": "address"
        },
        {
          "internalType": "uint256",
          "name": "tokenId",
          "type": "uint256"
        },
        {
          "internalType": "bytes",
          "name": "_data",
          "type": "bytes"
        }
      ],
      "name": "safeTransferFrom",
      "outputs": [],
      "stateMutability": "nonpayable",
      "type": "function"
    },
    {
      "inputs": [
        {
          "internalType": "address",
          "name": "operator",
          "type": "address"
        },
        {
          "internalType": "bool",
          "name": "approved",
          "type": "bool"
        }
      ],
      "name": "setApprovalForAll",
      "outputs": [],
      "stateMutability": "nonpayable",
      "type": "function"
    },
    {
      "inputs": [
        {
          "internalType": "bytes4",
          "name": "interfaceId",
          "type": "bytes4"
        }
      ],
      "name": "supportsInterface",
      "outputs": [
        {
          "internalType": "bool",
          "name": "",
          "type": "bool"
        }
      ],
      "stateMutability": "view",
      "type": "function"
    },
    {
      "inputs": [],
      "name": "symbol",
      "outputs": [
        {
          "internalType": "string",
          "name": "",
          "type": "string"
        }
      ],
      "stateMutability": "view",
      "type": "function"
    },
    {
      "inputs": [
        {
          "internalType": "uint256",
          "name": "index",
          "type": "uint256"
        }
      ],
      "name": "tokenByIndex",
      "outputs": [
        {
          "internalType": "uint256",
          "name": "",
          "type": "uint256"
        }
      ],
      "stateMutability": "view",
      "type": "function"
    },
    {
      "inputs": [
        {
          "internalType": "address",
          "name": "owner",
          "type": "address"
        },
        {
          "internalType": "uint256",
          "name": "index",
          "type": "uint256"
        }
      ],
      "name": "tokenOfOwnerByIndex",
      "outputs": [
        {
          "internalType": "uint256",
          "name": "",
          "type": "uint256"
        }
      ],
      "stateMutability": "view",
      "type": "function"
    },
    {
      "inputs": [
        {
          "internalType": "uint256",
          "name": "tokenId",
          "type": "uint256"
        }
      ],
      "name": "tokenURI",
      "outputs": [
        {
          "internalType": "string",
          "name": "",
          "type": "string"
        }
      ],
      "stateMutability": "view",
      "type": "function"
    },
    {
      "inputs": [],
      "name": "totalSupply",
      "outputs": [
        {
          "internalType": "uint256",
          "name": "",
          "type": "uint256"
        }
      ],
      "stateMutability": "view",
      "type": "function"
    },
    {
      "inputs": [
        {
          "internalType": "address",
          "name": "from",
          "type": "address"
        },
        {
          "internalType": "address",
          "name": "to",
          "type": "address"
        },
        {
          "internalType": "uint256",
          "name": "tokenId",
          "type": "uint256"
        }
      ],
      "name": "transferFrom",
      "outputs": [],
      "stateMutability": "nonpayable",
      "type": "function"
    },
    {
      "inputs": [
        {
          "internalType": "uint256",
          "name": "tokenId",
          "type": "uint256"
        },
        {
          "internalType": "string",
          "name": "newImageURI",
          "type": "string"
        }
      ],
      "name": "updateTokenURI",
      "outputs": [],
      "stateMutability": "nonpayable",
      "type": "function"
    }
  ],
  "bytecode": "0x6080604052610bb8600a553480156200001757600080fd5b50604051620033483803806200334883398181016040528101906200003d9190620001b7565b828281600090805190602001906200005792919062000095565b5080600190805190602001906200007092919062000095565b50505080600b90805190602001906200008b92919062000095565b5050505062000389565b828054620000a390620002f5565b90600052602060002090601f016020900481019282620000c7576000855562000113565b82601f10620000e257805160ff191683800117855562000113565b8280016001018555821562000113579182015b8281111562000112578251825591602001919060010190620000f5565b5b50905062000122919062000126565b5090565b5b808211156200014157600081600090555060010162000127565b5090565b60006200015c62000156846200028c565b62000258565b9050828152602081018484840111156200017557600080fd5b62000182848285620002bf565b509392505050565b600082601f8301126200019c57600080fd5b8151620001ae84826020860162000145565b91505092915050565b600080600060608486031215620001cd57600080fd5b600084015167ffffffffffffffff811115620001e857600080fd5b620001f6868287016200018a565b935050602084015167ffffffffffffffff8111156200021457600080fd5b62000222868287016200018a565b925050604084015167ffffffffffffffff8111156200024057600080fd5b6200024e868287016200018a565b9150509250925092565b6000604051905081810181811067ffffffffffffffff821117156200028257620002816200035a565b5b8060405250919050565b600067ffffffffffffffff821115620002aa57620002a96200035a565b5b601f19601f8301169050602081019050919050565b60005b83811015620002df578082015181840152602081019050620002c2565b83811115620002ef576000848401525b50505050565b600060028204905060018216806200030e57607f821691505b602082108114156200032557620003246200032b565b5b50919050565b7f4e487b7100000000000000000000000000000000000000000000000000000000600052602260045260246000fd5b7f4e487b7100000000000000000000000000000000000000000000000000000000600052604160045260246000fd5b612faf80620003996000396000f3fe608060405234801561001057600080fd5b50600436106101215760003560e01c80634f6ccce7116100ad578063a22cb46511610071578063a22cb4651461032c578063b88d4fde14610348578063c87b56dd14610364578063d5abeb0114610394578063e985e9c5146103b257610121565b80634f6ccce7146102625780636352211e1461029257806370a08231146102c2578063947b59ae146102f257806395d89b411461030e57610121565b806318160ddd116100f457806318160ddd146101c057806318e97fd1146101de57806323b872dd146101fa5780632f745c591461021657806342842e0e1461024657610121565b806301ffc9a71461012657806306fdde0314610156578063081812fc14610174578063095ea7b3146101a4575b600080fd5b610140600480360381019061013b91906120ba565b6103e2565b60405161014d91906129ac565b60405180910390f35b61015e61045c565b60405161016b91906129c7565b60405180910390f35b61018e6004803603810190610189919061214d565b6104ee565b60405161019b9190612945565b60405180910390f35b6101be60048036038101906101b9919061207e565b610573565b005b6101c861068b565b6040516101d59190612c09565b60405180910390f35b6101f860048036038101906101f39190612176565b610698565b005b610214600480360381019061020f9190611f78565b61070c565b005b610230600480360381019061022b919061207e565b61076c565b60405161023d9190612c09565b60405180910390f35b610260600480360381019061025b9190611f78565b610811565b005b61027c6004803603810190610277919061214d565b610831565b6040516102899190612c09565b60405180910390f35b6102ac60048036038101906102a7919061214d565b6108c8565b6040516102b99190612945565b60405180910390f35b6102dc60048036038101906102d79190611f13565b61097a565b6040516102e99190612c09565b60405180910390f35b61030c6004803603810190610307919061210c565b610a32565b005b610316610acb565b60405161032391906129c7565b60405180910390f35b61034660048036038101906103419190612042565b610b5d565b005b610362600480360381019061035d9190611fc7565b610b73565b005b61037e6004803603810190610379919061214d565b610bd5565b60405161038b91906129c7565b60405180910390f35b61039c610c86565b6040516103a99190612c09565b60405180910390f35b6103cc60048036038101906103c79190611f3c565b610c8c565b6040516103d991906129ac565b60405180910390f35b60007f780e9d63000000000000000000000000000000000000000000000000000000007bffffffffffffffffffffffffffffffffffffffffffffffffffffffff1916827bffffffffffffffffffffffffffffffffffffffffffffffffffffffff19161480610455575061045482610d20565b5b9050919050565b60606000805461046b90612e4d565b80601f016020809104026020016040519081016040528092919081815260200182805461049790612e4d565b80156104e45780601f106104b9576101008083540402835291602001916104e4565b820191906000526020600020905b8154815290600101906020018083116104c757829003601f168201915b5050505050905090565b60006104f982610e02565b610538576040517f08c379a000000000000000000000000000000000000000000000000000000000815260040161052f90612b49565b60405180910390fd5b6004600083815260200190815260200160002060009054906101000a900473ffffffffffffffffffffffffffffffffffffffff169050919050565b600061057e826108c8565b90508073ffffffffffffffffffffffffffffffffffffffff168373ffffffffffffffffffffffffffffffffffffffff1614156105ef576040517f08c379a00000000000000000000000000000000000000000000000000000000081526004016105e690612b89565b60405180910390fd5b8073ffffffffffffffffffffffffffffffffffffffff1661060e610e6e565b73ffffffffffffffffffffffffffffffffffffffff16148061063d575061063c81610637610e6e565b610c8c565b5b61067c576040517f08c379a000000000000000000000000000000000000000000000000000000000815260040161067390612ac9565b60405180910390fd5b6106868383610e76565b505050565b6000600880549050905090565b6106a182610e02565b6106e0576040517f08c379a00000000000000000000000000000000000000000000000000000000081526004016106d790612a89565b60405180910390fd5b80600c60008481526020019081526020016000209080519060200190610707929190611d37565b505050565b61071d610717610e6e565b82610f2f565b61075c576040517f08c379a000000000000000000000000000000000000000000000000000000000815260040161075390612ba9565b60405180910390fd5b61076783838361100d565b505050565b60006107778361097a565b82106107b8576040517f08c379a00000000000000000000000000000000000000000000000000000000081526004016107af906129e9565b60405180910390fd5b600660008473ffffffffffffffffffffffffffffffffffffffff1673ffffffffffffffffffffffffffffffffffffffff168152602001908152602001600020600083815260200190815260200160002054905092915050565b61082c83838360405180602001604052806000815250610b73565b505050565b600061083b61068b565b821061087c576040517f08c379a000000000000000000000000000000000000000000000000000000000815260040161087390612be9565b60405180910390fd5b600882815481106108b6577f4e487b7100000000000000000000000000000000000000000000000000000000600052603260045260246000fd5b90600052602060002001549050919050565b6000806002600084815260200190815260200160002060009054906101000a900473ffffffffffffffffffffffffffffffffffffffff169050600073ffffffffffffffffffffffffffffffffffffffff168173ffffffffffffffffffffffffffffffffffffffff161415610971576040517f08c379a000000000000000000000000000000000000000000000000000000000815260040161096890612b09565b60405180910390fd5b80915050919050565b60008073ffffffffffffffffffffffffffffffffffffffff168273ffffffffffffffffffffffffffffffffffffffff1614156109eb576040517f08c379a00000000000000000000000000000000000000000000000000000000081526004016109e290612ae9565b60405180910390fd5b600360008373ffffffffffffffffffffffffffffffffffffffff1673ffffffffffffffffffffffffffffffffffffffff168152602001908152602001600020549050919050565b600a54610a3d61068b565b10610a7d576040517f08c379a0000000000000000000000000000000000000000000000000000000008152600401610a7490612bc9565b60405180910390fd5b60006001610a8961068b565b610a939190612d0d565b9050610a9f3382611269565b81600c60008381526020019081526020016000209080519060200190610ac6929190611d37565b505050565b606060018054610ada90612e4d565b80601f0160208091040260200160405190810160405280929190818152602001828054610b0690612e4d565b8015610b535780601f10610b2857610100808354040283529160200191610b53565b820191906000526020600020905b815481529060010190602001808311610b3657829003601f168201915b5050505050905090565b610b6f610b68610e6e565b8383611437565b5050565b610b84610b7e610e6e565b83610f2f565b610bc3576040517f08c379a0000000000000000000000000000000000000000000000000000000008152600401610bba90612ba9565b60405180910390fd5b610bcf848484846115a4565b50505050565b6060610be082610e02565b610c1f576040517f08c379a0000000000000000000000000000000000000000000000000000000008152600401610c1690612a89565b60405180910390fd5b6000610c29611600565b90506000815111610c495760405180602001604052806000815250610c7e565b80600c6000858152602001908152602001600020604051602001610c6e929190612921565b6040516020818303038152906040525b915050919050565b600a5481565b6000600560008473ffffffffffffffffffffffffffffffffffffffff1673ffffffffffffffffffffffffffffffffffffffff16815260200190815260200160002060008373ffffffffffffffffffffffffffffffffffffffff1673ffffffffffffffffffffffffffffffffffffffff16815260200190815260200160002060009054906101000a900460ff16905092915050565b60007f80ac58cd000000000000000000000000000000000000000000000000000000007bffffffffffffffffffffffffffffffffffffffffffffffffffffffff1916827bffffffffffffffffffffffffffffffffffffffffffffffffffffffff19161480610deb57507f5b5e139f000000000000000000000000000000000000000000000000000000007bffffffffffffffffffffffffffffffffffffffffffffffffffffffff1916827bffffffffffffffffffffffffffffffffffffffffffffffffffffffff1916145b80610dfb5750610dfa82611692565b5b9050919050565b60008073ffffffffffffffffffffffffffffffffffffffff166002600084815260200190815260200160002060009054906101000a900473ffffffffffffffffffffffffffffffffffffffff1673ffffffffffffffffffffffffffffffffffffffff1614159050919050565b600033905090565b816004600083815260200190815260200160002060006101000a81548173ffffffffffffffffffffffffffffffffffffffff021916908373ffffffffffffffffffffffffffffffffffffffff160217905550808273ffffffffffffffffffffffffffffffffffffffff16610ee9836108c8565b73ffffffffffffffffffffffffffffffffffffffff167f8c5be1e5ebec7d5bd14f71427d1e84f3dd0314c0f7b2291e5b200ac8c7c3b92560405160405180910390a45050565b6000610f3a82610e02565b610f79576040517f08c379a0000000000000000000000000000000000000000000000000000000008152600401610f7090612aa9565b60405180910390fd5b6000610f84836108c8565b90508073ffffffffffffffffffffffffffffffffffffffff168473ffffffffffffffffffffffffffffffffffffffff161480610ff357508373ffffffffffffffffffffffffffffffffffffffff16610fdb846104ee565b73ffffffffffffffffffffffffffffffffffffffff16145b8061100457506110038185610c8c565b5b91505092915050565b8273ffffffffffffffffffffffffffffffffffffffff1661102d826108c8565b73ffffffffffffffffffffffffffffffffffffffff1614611083576040517f08c379a000000000000000000000000000000000000000000000000000000000815260040161107a90612b69565b60405180910390fd5b600073ffffffffffffffffffffffffffffffffffffffff168273ffffffffffffffffffffffffffffffffffffffff1614156110f3576040517f08c379a00000000000000000000000000000000000000000000000000000000081526004016110ea90612a49565b60405180910390fd5b6110fe8383836116fc565b611109600082610e76565b6001600360008573ffffffffffffffffffffffffffffffffffffffff1673ffffffffffffffffffffffffffffffffffffffff16815260200190815260200160002060008282546111599190612d63565b925050819055506001600360008473ffffffffffffffffffffffffffffffffffffffff1673ffffffffffffffffffffffffffffffffffffffff16815260200190815260200160002060008282546111b09190612d0d565b92505081905550816002600083815260200190815260200160002060006101000a81548173ffffffffffffffffffffffffffffffffffffffff021916908373ffffffffffffffffffffffffffffffffffffffff160217905550808273ffffffffffffffffffffffffffffffffffffffff168473ffffffffffffffffffffffffffffffffffffffff167fddf252ad1be2c89b69c2b068fc378daa952ba7f163c4a11628f55a4df523b3ef60405160405180910390a4505050565b600073ffffffffffffffffffffffffffffffffffffffff168273ffffffffffffffffffffffffffffffffffffffff1614156112d9576040517f08c379a00000000000000000000000000000000000000000000000000000000081526004016112d090612b29565b60405180910390fd5b6112e281610e02565b15611322576040517f08c379a000000000000000000000000000000000000000000000000000000000815260040161131990612a29565b60405180910390fd5b61132e600083836116fc565b6001600360008473ffffffffffffffffffffffffffffffffffffffff1673ffffffffffffffffffffffffffffffffffffffff168152602001908152602001600020600082825461137e9190612d0d565b92505081905550816002600083815260200190815260200160002060006101000a81548173ffffffffffffffffffffffffffffffffffffffff021916908373ffffffffffffffffffffffffffffffffffffffff160217905550808273ffffffffffffffffffffffffffffffffffffffff16600073ffffffffffffffffffffffffffffffffffffffff167fddf252ad1be2c89b69c2b068fc378daa952ba7f163c4a11628f55a4df523b3ef60405160405180910390a45050565b8173ffffffffffffffffffffffffffffffffffffffff168373ffffffffffffffffffffffffffffffffffffffff1614156114a6576040517f08c379a000000000000000000000000000000000000000000000000000000000815260040161149d90612a69565b60405180910390fd5b80600560008573ffffffffffffffffffffffffffffffffffffffff1673ffffffffffffffffffffffffffffffffffffffff16815260200190815260200160002060008473ffffffffffffffffffffffffffffffffffffffff1673ffffffffffffffffffffffffffffffffffffffff16815260200190815260200160002060006101000a81548160ff0219169083151502179055508173ffffffffffffffffffffffffffffffffffffffff168373ffffffffffffffffffffffffffffffffffffffff167f17307eab39ab6107e8899845ad3d59bd9653f200f220920489ca2b5937696c318360405161159791906129ac565b60405180910390a3505050565b6115af84848461100d565b6115bb84848484611810565b6115fa576040517f08c379a00000000000000000000000000000000000000000000000000000000081526004016115f190612a09565b60405180910390fd5b50505050565b6060600b805461160f90612e4d565b80601f016020809104026020016040519081016040528092919081815260200182805461163b90612e4d565b80156116885780601f1061165d57610100808354040283529160200191611688565b820191906000526020600020905b81548152906001019060200180831161166b57829003601f168201915b5050505050905090565b60007f01ffc9a7000000000000000000000000000000000000000000000000000000007bffffffffffffffffffffffffffffffffffffffffffffffffffffffff1916827bffffffffffffffffffffffffffffffffffffffffffffffffffffffff1916149050919050565b6117078383836119a7565b600073ffffffffffffffffffffffffffffffffffffffff168373ffffffffffffffffffffffffffffffffffffffff16141561174a57611745816119ac565b611789565b8173ffffffffffffffffffffffffffffffffffffffff168373ffffffffffffffffffffffffffffffffffffffff16146117885761178783826119f5565b5b5b600073ffffffffffffffffffffffffffffffffffffffff168273ffffffffffffffffffffffffffffffffffffffff1614156117cc576117c781611b62565b61180b565b8273ffffffffffffffffffffffffffffffffffffffff168273ffffffffffffffffffffffffffffffffffffffff161461180a576118098282611ca5565b5b5b505050565b60006118318473ffffffffffffffffffffffffffffffffffffffff16611d24565b1561199a578373ffffffffffffffffffffffffffffffffffffffff1663150b7a0261185a610e6e565b8786866040518563ffffffff1660e01b815260040161187c9493929190612960565b602060405180830381600087803b15801561189657600080fd5b505af19250505080156118c757506040513d601f19601f820116820180604052508101906118c491906120e3565b60015b61194a573d80600081146118f7576040519150601f19603f3d011682016040523d82523d6000602084013e6118fc565b606091505b50600081511415611942576040517f08c379a000000000000000000000000000000000000000000000000000000000815260040161193990612a09565b60405180910390fd5b805181602001fd5b63150b7a0260e01b7bffffffffffffffffffffffffffffffffffffffffffffffffffffffff1916817bffffffffffffffffffffffffffffffffffffffffffffffffffffffff19161491505061199f565b600190505b949350505050565b505050565b6008805490506009600083815260200190815260200160002081905550600881908060018154018082558091505060019003906000526020600020016000909190919091505550565b60006001611a028461097a565b611a0c9190612d63565b9050600060076000848152602001908152602001600020549050818114611af1576000600660008673ffffffffffffffffffffffffffffffffffffffff1673ffffffffffffffffffffffffffffffffffffffff168152602001908152602001600020600084815260200190815260200160002054905080600660008773ffffffffffffffffffffffffffffffffffffffff1673ffffffffffffffffffffffffffffffffffffffff168152602001908152602001600020600084815260200190815260200160002081905550816007600083815260200190815260200160002081905550505b6007600084815260200190815260200160002060009055600660008573ffffffffffffffffffffffffffffffffffffffff1673ffffffffffffffffffffffffffffffffffffffff16815260200190815260200160002060008381526020019081526020016000206000905550505050565b60006001600880549050611b769190612d63565b9050600060096000848152602001908152602001600020549050600060088381548110611bcc577f4e487b7100000000000000000000000000000000000000000000000000000000600052603260045260246000fd5b906000526020600020015490508060088381548110611c14577f4e487b7100000000000000000000000000000000000000000000000000000000600052603260045260246000fd5b906000526020600020018190555081600960008381526020019081526020016000208190555060096000858152602001908152602001600020600090556008805480611c89577f4e487b7100000000000000000000000000000000000000000000000000000000600052603160045260246000fd5b6001900381819060005260206000200160009055905550505050565b6000611cb08361097a565b905081600660008573ffffffffffffffffffffffffffffffffffffffff1673ffffffffffffffffffffffffffffffffffffffff168152602001908152602001600020600083815260200190815260200160002081905550806007600084815260200190815260200160002081905550505050565b600080823b905060008111915050919050565b828054611d4390612e4d565b90600052602060002090601f016020900481019282611d655760008555611dac565b82601f10611d7e57805160ff1916838001178555611dac565b82800160010185558215611dac579182015b82811115611dab578251825591602001919060010190611d90565b5b509050611db99190611dbd565b5090565b5b80821115611dd6576000816000905550600101611dbe565b5090565b6000611ded611de884612c55565b612c24565b905082815260208101848484011115611e0557600080fd5b611e10848285612e0b565b509392505050565b6000611e2b611e2684612c85565b612c24565b905082815260208101848484011115611e4357600080fd5b611e4e848285612e0b565b509392505050565b600081359050611e6581612f1d565b92915050565b600081359050611e7a81612f34565b92915050565b600081359050611e8f81612f4b565b92915050565b600081519050611ea481612f4b565b92915050565b600082601f830112611ebb57600080fd5b8135611ecb848260208601611dda565b91505092915050565b600082601f830112611ee557600080fd5b8135611ef5848260208601611e18565b91505092915050565b600081359050611f0d81612f62565b92915050565b600060208284031215611f2557600080fd5b6000611f3384828501611e56565b91505092915050565b60008060408385031215611f4f57600080fd5b6000611f5d85828601611e56565b9250506020611f6e85828601611e56565b9150509250929050565b600080600060608486031215611f8d57600080fd5b6000611f9b86828701611e56565b9350506020611fac86828701611e56565b9250506040611fbd86828701611efe565b9150509250925092565b60008060008060808587031215611fdd57600080fd5b6000611feb87828801611e56565b9450506020611ffc87828801611e56565b935050604061200d87828801611efe565b925050606085013567ffffffffffffffff81111561202a57600080fd5b61203687828801611eaa565b91505092959194509250565b6000806040838503121561205557600080fd5b600061206385828601611e56565b925050602061207485828601611e6b565b9150509250929050565b6000806040838503121561209157600080fd5b600061209f85828601611e56565b92505060206120b085828601611efe565b9150509250929050565b6000602082840312156120cc57600080fd5b60006120da84828501611e80565b91505092915050565b6000602082840312156120f557600080fd5b600061210384828501611e95565b91505092915050565b60006020828403121561211e57600080fd5b600082013567ffffffffffffffff81111561213857600080fd5b61214484828501611ed4565b91505092915050565b60006020828403121561215f57600080fd5b600061216d84828501611efe565b91505092915050565b6000806040838503121561218957600080fd5b600061219785828601611efe565b925050602083013567ffffffffffffffff8111156121b457600080fd5b6121c085828601611ed4565b9150509250929050565b6121d381612d97565b82525050565b6121e281612da9565b82525050565b60006121f382612cca565b6121fd8185612ce0565b935061220d818560208601612e1a565b61221681612f0c565b840191505092915050565b600061222c82612cd5565b6122368185612cf1565b9350612246818560208601612e1a565b61224f81612f0c565b840191505092915050565b600061226582612cd5565b61226f8185612d02565b935061227f818560208601612e1a565b80840191505092915050565b6000815461229881612e4d565b6122a28186612d02565b945060018216600081146122bd57600181146122ce57612301565b60ff19831686528186019350612301565b6122d785612cb5565b60005b838110156122f9578154818901526001820191506020810190506122da565b838801955050505b50505092915050565b6000612317602b83612cf1565b91507f455243373231456e756d657261626c653a206f776e657220696e646578206f7560008301527f74206f6620626f756e64730000000000000000000000000000000000000000006020830152604082019050919050565b600061237d603283612cf1565b91507f4552433732313a207472616e7366657220746f206e6f6e20455243373231526560008301527f63656976657220696d706c656d656e74657200000000000000000000000000006020830152604082019050919050565b60006123e3601c83612cf1565b91507f4552433732313a20746f6b656e20616c7265616479206d696e746564000000006000830152602082019050919050565b6000612423602483612cf1565b91507f4552433732313a207472616e7366657220746f20746865207a65726f2061646460008301527f72657373000000000000000000000000000000000000000000000000000000006020830152604082019050919050565b6000612489601983612cf1565b91507f4552433732313a20617070726f766520746f2063616c6c6572000000000000006000830152602082019050919050565b60006124c9601483612cf1565b91507f546f6b656e20646f6573206e6f742065786973740000000000000000000000006000830152602082019050919050565b6000612509602c83612cf1565b91507f4552433732313a206f70657261746f7220717565727920666f72206e6f6e657860008301527f697374656e7420746f6b656e00000000000000000000000000000000000000006020830152604082019050919050565b600061256f603883612cf1565b91507f4552433732313a20617070726f76652063616c6c6572206973206e6f74206f7760008301527f6e6572206e6f7220617070726f76656420666f7220616c6c00000000000000006020830152604082019050919050565b60006125d5602a83612cf1565b91507f4552433732313a2062616c616e636520717565727920666f7220746865207a6560008301527f726f2061646472657373000000000000000000000000000000000000000000006020830152604082019050919050565b600061263b602983612cf1565b91507f4552433732313a206f776e657220717565727920666f72206e6f6e657869737460008301527f656e7420746f6b656e00000000000000000000000000000000000000000000006020830152604082019050919050565b60006126a1602083612cf1565b91507f4552433732313a206d696e7420746f20746865207a65726f20616464726573736000830152602082019050919050565b60006126e1602c83612cf1565b91507f4552433732313a20617070726f76656420717565727920666f72206e6f6e657860008301527f697374656e7420746f6b656e00000000000000000000000000000000000000006020830152604082019050919050565b6000612747602983612cf1565b91507f4552433732313a207472616e73666572206f6620746f6b656e2074686174206960008301527f73206e6f74206f776e00000000000000000000000000000000000000000000006020830152604082019050919050565b60006127ad602183612cf1565b91507f4552433732313a20617070726f76616c20746f2063757272656e74206f776e6560008301527f72000000000000000000000000000000000000000000000000000000000000006020830152604082019050919050565b6000612813603183612cf1565b91507f4552433732313a207472616e736665722063616c6c6572206973206e6f74206f60008301527f776e6572206e6f7220617070726f7665640000000000000000000000000000006020830152604082019050919050565b6000612879601283612cf1565b91507f4d617820737570706c79207265616368656400000000000000000000000000006000830152602082019050919050565b60006128b9602c83612cf1565b91507f455243373231456e756d657261626c653a20676c6f62616c20696e646578206f60008301527f7574206f6620626f756e647300000000000000000000000000000000000000006020830152604082019050919050565b61291b81612e01565b82525050565b600061292d828561225a565b9150612939828461228b565b91508190509392505050565b600060208201905061295a60008301846121ca565b92915050565b600060808201905061297560008301876121ca565b61298260208301866121ca565b61298f6040830185612912565b81810360608301526129a181846121e8565b905095945050505050565b60006020820190506129c160008301846121d9565b92915050565b600060208201905081810360008301526129e18184612221565b905092915050565b60006020820190508181036000830152612a028161230a565b9050919050565b60006020820190508181036000830152612a2281612370565b9050919050565b60006020820190508181036000830152612a42816123d6565b9050919050565b60006020820190508181036000830152612a6281612416565b9050919050565b60006020820190508181036000830152612a828161247c565b9050919050565b60006020820190508181036000830152612aa2816124bc565b9050919050565b60006020820190508181036000830152612ac2816124fc565b9050919050565b60006020820190508181036000830152612ae281612562565b9050919050565b60006020820190508181036000830152612b02816125c8565b9050919050565b60006020820190508181036000830152612b228161262e565b9050919050565b60006020820190508181036000830152612b4281612694565b9050919050565b60006020820190508181036000830152612b62816126d4565b9050919050565b60006020820190508181036000830152612b828161273a565b9050919050565b60006020820190508181036000830152612ba2816127a0565b9050919050565b60006020820190508181036000830152612bc281612806565b9050919050565b60006020820190508181036000830152612be28161286c565b9050919050565b60006020820190508181036000830152612c02816128ac565b9050919050565b6000602082019050612c1e6000830184612912565b92915050565b6000604051905081810181811067ffffffffffffffff82111715612c4b57612c4a612edd565b5b8060405250919050565b600067ffffffffffffffff821115612c7057612c6f612edd565b5b601f19601f8301169050602081019050919050565b600067ffffffffffffffff821115612ca057612c9f612edd565b5b601f19601f8301169050602081019050919050565b60008190508160005260206000209050919050565b600081519050919050565b600081519050919050565b600082825260208201905092915050565b600082825260208201905092915050565b600081905092915050565b6000612d1882612e01565b9150612d2383612e01565b9250827fffffffffffffffffffffffffffffffffffffffffffffffffffffffffffffffff03821115612d5857612d57612e7f565b5b828201905092915050565b6000612d6e82612e01565b9150612d7983612e01565b925082821015612d8c57612d8b612e7f565b5b828203905092915050565b6000612da282612de1565b9050919050565b60008115159050919050565b60007fffffffff0000000000000000000000000000000000000000000000000000000082169050919050565b600073ffffffffffffffffffffffffffffffffffffffff82169050919050565b6000819050919050565b82818337600083830152505050565b60005b83811015612e38578082015181840152602081019050612e1d565b83811115612e47576000848401525b50505050565b60006002820490506001821680612e6557607f821691505b60208210811415612e7957612e78612eae565b5b50919050565b7f4e487b7100000000000000000000000000000000000000000000000000000000600052601160045260246000fd5b7f4e487b7100000000000000000000000000000000000000000000000000000000600052602260045260246000fd5b7f4e487b7100000000000000000000000000000000000000000000000000000000600052604160045260246000fd5b6000601f19601f8301169050919050565b612f2681612d97565b8114612f3157600080fd5b50565b612f3d81612da9565b8114612f4857600080fd5b50565b612f5481612db5565b8114612f5f57600080fd5b50565b612f6b81612e01565b8114612f7657600080fd5b5056fea2646970667358221220146004dfda8f69f49218bf10bcee71f9952112cc290bed0b9604345f883eb2e364736f6c63430008000033",
  "linkReferences": {},
  "deployedLinkReferences": {}
}